:020000040800F2
:10000000F0080020A1010008EF2700080D230008D8
:10001000ED270008D90C0008FB2E000800000000A6
:10002000000000000000000000000000012D00089A
:10003000DB0C000800000000F12B0008032D000875
:10004000BB010008BB010008BB010008BB010008A0
:10005000BB010008BB010008BB010008BB01000890
:10006000BB010008BB010008BB010008BB01000880
:10007000BB010008BB010008BB010008BB01000870
:10008000BB010008BB010008BB010008BB01000860
:10009000BB010008BB010008BB010008BB01000850
:1000A000BB010008BB010008BB010008BB01000840
:1000B000BB010008BB010008BB010008BB01000830
:1000C000BB010008BB010008BB010008BB01000820
:1000D000BB010008BB010008BB010008BB01000810
:1000E000BB010008BB010008BB01000800F002F8DA
:1000F00000F047F80AA090E8000C82448344AAF17B
:100100000107DA4501D100F03CF8AFF2090EBAE878
:100110000F0013F0010F18BFFB1A43F0010318473B
:1001200098380000B8380000103A24BF78C878C169
:10013000FAD8520724BF30C830C144BF04680C60ED
:10014000704700000023002400250026103A28BF35
:1001500078C1FBD8520728BF30C148BF0B60704739
:10016000732900F0E280002070471FB59DE803006E
:1001700000F01AFB00F00CF91FBD10B500F071F98A
:1001800010BD00F0D4F91146FFF7EFFF02F0F2FEC8
:1001900000F0D8FA03B4FFF7F0FF03BC00F096FCC0
:1001A0000948804709480047FEE7FEE7FEE7FEE70B
:1001B000FEE7FEE7FEE7FEE7FEE7FEE70448054947
:1001C000054A064B704700007F2D0008ED0000082F
:1001D000F0020020F0080020F0040020F0040020CD
:1001E0000FB4044910B503AA029800F0A3F810BC9C
:1001F0005DF814FBE40100202DE9F0410E460446B1
:10020000002020622046E168884730B3252805D0C9
:10021000D4E901219047206A401CF2E7E1682046BA
:1002200000278847050018D0A5F14100192802D8F9
:1002300020354FF400673246294620462760FFF7F5
:100240008FFF40B1012804D0F61D26F007060836BE
:10025000D8E7361DD6E72846DAE7206ABDE8F08100
:1002600070B50C460546012A05D02878800600D5D1
:10027000EA69002302E0012305E05B1C934202D2FD
:10028000E05C0028F9D1A869E618C01AA861286ABC
:10029000184428622846AFF3008004E0D5E9012124
:1002A00014F8010B9047B442F8D32846AFF300800E
:1002B00070BD4FF0000200B51346944696462039B3
:1002C00022BFA0E80C50A0E80C50B1F12001BFF40F
:1002D000F7AF090728BFA0E80C5048BF0CC05DF875
:1002E00004EB890028BF40F8042B08BF704748BFC3
:1002F00020F8022B11F0804F18BF00F8012B704737
:1003000070477047704710B5436913B1AFF3008071
:1003100001E0FFF7A5FF012010BD127800F12401D4
:100320000A7000224A700122EDE711684FF0FF3297
:10033000E9E70000074B70B50D467B4400F011F86B
:100340000446284600F020F810B14FF0FF3070BD91
:10035000204670BDDF2B000001694A1C026108784D
:10036000704700B58FB0CDE90131002105910549F5
:100370007944CDE9031011466846FFF73DFF0FB001
:1003800000BD0000E5FFFFFF007B00F0800070472C
:1003900010B542485421FFF78CFF41485421FFF724
:1003A00088FF40485421FFF784FF3F493B483C4ABF
:1003B0003F4B08603D490A603A491960531C036588
:1003C000481C1065012008653B48344A39A178442F
:1003D00000F01CF920B9384878440A3800F0BBF91D
:1003E00037482F4A35A1784400F010F920B9344835
:1003F00078440A3800F0AFF932482A4A2FA17844ED
:1004000000F004F920B92F4878440A3800F0A3F925
:1004100040232248DC000021224600F0D4F820B11D
:1004200025487844543800F096F91D482246402368
:10043000002100F0C8F820B121487844543800F079
:100440008AF9184822461023002100F0BCF8002841
:1004500006D01C487844BDE81040563800F07BB9FF
:1004600010BD104870B5006D20F001040B4800F07D
:1004700043F90B4800F040F90A4800F03DF909E063
:10048000206D20F00105204600F036F9204600F0EE
:1004900073F82C46002CF3D170BD000090010020B1
:1004A000E401002038020020300000203400002049
:1004B0003800002072000000D835000077000000EE
:1004C000C4350000B03500000EB5CDE9000100F0E4
:1004D000DDFA029069460120ABBE0EBD08B5694643
:1004E00000900220ABBE08BD1FB58DE8070069462D
:1004F0000520ABBE04B010BD1FB58DE80F006946E6
:100500000620ABBEF6E708B5694600900920ABBEF1
:1005100008BD1CB5CDE9000169460A20ABBE1CBD73
:10052000704708B5694600900C20ABBE08BD754603
:1005300000F018F9AE4605006946534620F0070062
:10054000854618B020B5FFF739FEBDE820404FF0D2
:1005500000064FF000074FF000084FF0000B21F0AD
:100560000701AC46ACE8C009ACE8C009ACE8C0097A
:10057000ACE8C0098D46704770B50446051F00F011
:10058000F7F80068002C14BF446870BD002C18BF39
:10059000AC423CBF20466468F8D301680A18AA42FE
:1005A00018BF456003D12A680546114401602868D8
:1005B0004119A1421CBF6C6070BD6168696021680F
:1005C0000844286070BD70B5C468A50713D06502E3
:1005D00011D4B2F5807F09D0B2F5007F06D0B2F514
:1005E000806F08D1012300F1240106E05D1E6FF049
:1005F0007F46B54201D3012070BD0161C3614160F6
:1006000024F470611143C160002070BD2DE9F041F8
:100610000C4607461646104600F06EF82078611C1E
:1006200061280AD0722802D077283CD102E0012547
:10063000002405E00225042402E0082448F2020513
:1006400011F8010B2B2806D0622809D011F8010CF3
:1006500074280AD00BE045F0030544F00204EFE7EC
:1006600045F0040544F00104EAE744F0100438467C
:100670002146FFF729FF411C15D00021316171602F
:100680004FF40071F560F1617061200704D53046C8
:100690000222002100F0E6F8306D40F001003065E4
:1006A0003046BDE8F0810020FBE72DE9F0410D4622
:1006B0000646104C206DC10704D0410804D020F03C
:1006C0000104F7E722460EE0542000F09CF80700F2
:1006D0000ED0206D47F001010843542120653846B3
:1006E000FFF7E7FD3A4629463046BDE8F0418DE781
:1006F0000020D6E7900100202DE9F04704464FF096
:1007000000094FF0FF37C568D4E90486A80707D071
:10071000204600F057F93046FFF7E0FE002802DAE5
:100720003846BDE8F087280502D54046FFF724FF8C
:100730004C212046FFF7BDFD206D20F00100206513
:100740004846EEE710B50446AFF300802046BDE80A
:100750001040FFF71FBD10B500F07EF9BDE8104056
:1007600000F074B9004870478C0200207047000008
:1007700000487047940200207047704770477047E8
:1007800038B504460A4600206946AFF300800028C9
:1007900008BF38BD02460099204600F0A4F90120A8
:1007A00038BD012000F0F3B9F8B5AFF3008005467D
:1007B00000200C46102000BF0646A819A0420DD903
:1007C000324669460020AFF30080070008BF00F002
:1007D000DEF90098A04218BF0546C419FFF7C8FF0C
:1007E00005600746F01D20F007004619284600F076
:1007F00073F9B44208BFF8BDA21B31463868BDE8A2
:10080000F84000F070B970B50646FFF7B1FF056813
:1008100006F10B0020F00704B4429CBF002070BD1D
:100820002B466A68BAB11068A04210D304F10801DF
:1008300088423CBF5068586007D351681019416026
:100840001168091B016058601460101D70BD1346CB
:100850005268002AE7D121462846FFF791FF002879
:10086000DED170BD2DE9F041044616460D464769BC
:10087000007B80072ED03846FFF745FE50BB3EB3C5
:10088000012E02D0022E25D104E0204600F045F9C9
:1008900005441DE03846FFF744FEE168002841F0BA
:1008A0001001E16005DA204600F058F80120BDE8AB
:1008B000F081C9030BD56268E16A914200D8114604
:1008C000A26911442269891A814200DD0846054463
:1008D000002D01DA0220EAE7E16A6068E2688142FD
:1008E00006D29103E06203D522F4003141F01002F8
:1008F000A6690027AE4213DCE16A814201D90B46AA
:1009000000E0034603EB060C2369ACEB030CAC459B
:1009100006DD814201D98C4600E084469C4505D124
:10092000A760276042F02000A5620DE0AD1BE669DC
:10093000AE1B8142A66000D90846C01A281A206062
:100940005819606022F0200003490840E060002050
:1009500084F84870ABE70000BFCFD7FFC16821F42F
:10096000001141F08001C160002181600160704789
:100970002DE9F047814614460E464FF0FF383248C5
:10098000D5685769054209D03846A169FFF7C1FD0E
:10099000002811DB2C48C0430540E5602B46324659
:1009A00049463846FFF7A0FDA16920F00042B21A7F
:1009B00011440028A16103D02046FFF7CFFF404635
:1009C000BDE8F08770B504460569C06A6168884271
:1009D00000D80846E16821F42011E160C90312D56E
:1009E000A84208D02246411B2846FFF7C1FF10B19C
:1009F0004FF0FF3070BD0020E562C4E90150E068AF
:100A000020F48030E060002070BD10B50446C0685E
:100A100020F02000E060A16AA06988420DD0204645
:100A2000FFF7D0FFE06820F4405040F01000E06095
:100A3000A06AA0612069E062606044F24001E06861
:100A40008843E06010BD000010000200002801D0C3
:100A500000F03CB87047000010B5014602A000F05D
:100A60007DF8012010BD00005349475254524544BF
:100A70003A2052656469726563743A2063616E2737
:100A800074206F70656E3A200000000010B5431CA2
:100A900002E010F8011B71B18107FAD14FF0013269
:100AA00002C88C1A8C4314EAC211F9D0C01A0A0683
:100AB00003D0C01E10BDC01A10BD0A0401D0801E94
:100AC00010BD0902FCD0401E10BD000001491820D5
:100AD000ABBEFEE72600020000210160C0E9011064
:100AE000704710207047034640688C46002818BFA6
:100AF00088423CBF03464068F8D3186818448842CF
:100B000007D00CF1030020F00700001D411A521A13
:100B10000146081D0A60FFF72FBD10B50146C268E7
:100B2000900703D0900607D5886A0AE000F03EF8E7
:100B300001210160881E10BD8B69486818440B694B
:100B4000C01A91F848301BB191F84910401A10BDF5
:100B50001103FCD50028FADD401E10BD70B5054616
:100B60000C460A2000E06D1C00F018F835B128781A
:100B70000028F8D102E0641C00F010F814B12078CD
:100B80000028F8D1BDE870400A2000F007B810B581
:100B900000F010F8BDE81040FFF758BF08B56946EF
:100BA0008DF800000320ABBE08BD00000048704770
:100BB0008C02002010B5012805D0002103A0FFF70A
:100BC000CDFF012010BD09A1F8E7000053494752AD
:100BD000544D454D3A204F7574206F66206865610D
:100BE00070206D656D6F7279000000003A204865D5
:100BF0006170206D656D6F727920636F72727570B0
:100C00007465640070B5044600688168C943C9070B
:100C100017D1816821F00101816000F0BFFB05461A
:100C20000AE000BF00F0BAFB401B022804D920688C
:100C30008068C043C00706D020688068C043C007F2
:100C4000F0D0002070BDA06A40F01000A062E06A01
:100C500040F00100E062012070BD0000F8B5002600
:100C60000446009600688168C943C9072DD0816891
:100C700041F001018160164816490068B0FBF1F0AF
:100C800000E0401E00900028FBD100F087FB0546E5
:100C900016E000BF00F082FB401B022810D920683C
:100CA0008068C043C0070BD0A06A40F01000A0626B
:100CB000E06A40F00100E06284F824600120F8BDA1
:100CC00020688068C043C007E4D10020F8BD000060
:100CD0001400002040420F00FEE7704772B6FEE7A6
:100CE000F8B50024009490F824202546012A12D05B
:100CF000012280F824204A681F23072A0DD20668A3
:100D0000776B521E02EB820293409F430B68934025
:100D10001F43776319E00220F8BD06680D2A0AD246
:100D2000376BD21F02EB820293409F430B689340C4
:100D30001F43376309E0F76A0D3A02EB82029340E2
:100D40009F430B6893401F43F7620A6807230668B6
:100D50000A2A0AD3F7680A3A02EB420293409F43F9
:100D60008B6893401F43F76008E0376902EB42024B
:100D700093409F438B6893401F4337610A68102A52
:100D800001D0112A20D1124B02689A4217D19368E0
:100D90001B0219D4936843F4000393600968102977
:100DA00012D10C490C4A0968B1FBF2F101EB810147
:100DB000490000E0491E00910029FBD104E0816A4E
:100DC00041F020018162012480F824502046F8BDC2
:100DD000002401401400002040420F000068C06C55
:100DE000704700002DE9F0414FF0000704003D4638
:100DF0007ED0A06A002628B9E66284F824602046E6
:100E000000F07EF82046FFF7FDFEA16AC90600D477
:100E100020B1A06A40F01000A06269E0A16A21F44C
:100E2000885141F00201A1626268E169237B0A43B3
:100E300047EA43010A43A1684FF48077B94209D0D9
:100E4000012907D05FF0000194F814C0BCF1010F34
:100E500002D00AE03946F7E7F3B1A36A43F0200372
:100E6000A362E36A43F00103E3622368D3F804C09A
:100E70002CF4694C4CEA010CC3F804C021688B685F
:100E8000DFF870C003EA0C0313438B60A168B9421A
:100E90000BD0012909D00CE0DFF85CC0A3690CEB92
:100EA00043330B4343F40061DFE7218A0D05A5F5C9
:100EB00080152168CB6A23F470032B43CB62216831
:100EC00089680E4B1940914208D1E662A16A21F06F
:100ED000020141F00101A162BDE8F081A06A20F0A9
:100EE000020040F01000A062E06A40F00100E06201
:100EF0000120F1E7FDF7E1FF00E0FFFFFE0E1FFF1D
:100F000010B586B0002100910191029103911A4C15
:100F100003681A4903221A48A34211D18B6943F48A
:100F200000738B618B6903F4007304938B6943F046
:100F300004038B61896901F004010491012113E02C
:100F4000104CA34215D18B6943F480638B618B698C
:100F500003F4806304938B6943F004038B61896914
:100F600001F0040104910821CDE90012694600F066
:100F70001BF906B010BD0000002401400010024023
:100F800000080140002801402DE9F84300270D46E4
:100F90000446009700F002FA804620688168C9057F
:100FA00008D5A06A40F02000A06284F824700120D7
:100FB000BDE8F8834168C90503D4C06A10F4700F16
:100FC0002AD0022000F00EFC3B490968B1FBF0F684
:100FD0002068036939490B424FEA61014FEAA112C7
:100FE0001FD1C3684FEA611C13EA0C0F19D10369C2
:100FF0000B4225D1C068104222D1142023E0681C86
:101000000AD02DB100F0CAF9A0EB0800A84203D91C
:1010100020680068800725D5206800688007EED525
:101020002DE003690B4202D1C168114206D002696A
:1010300023490A4206D1C068084203D1542002E085
:10104000292000E0FC204643009816E0681C11D0DF
:101050002DB100F0A3F9A0EB0800A8420AD900982E
:10106000B04207D2A06A40F00400A06284F8247065
:1010700003209DE70098401C0090B042E6D3216811
:101080006FF012000860A06A40F40070A06220684F
:101090008068C0F3424007280CD1207B50B9A06A79
:1010A00020F48070A062A06AC00403D4A06A40F05B
:1010B0000100A06200207BE7140000202449922454
:1010C0004992240070B5044690F8240001280DD000
:1010D000012084F824002046FFF7C0FD02004FF0F5
:1010E000000005D084F82400104670BD022070BDB9
:1010F000A16A40F20123994341F48071A1621F4D1E
:1011000023681F49AB4218D10E6816F4702F14D013
:10111000A66A46F48016A6620E68760505D5A66A0C
:1011200026F4005646F48056A662A66AF6040AD54E
:10113000E66A26F00606E66206E0A66A26F480164F
:10114000A6625E68E9E7E06284F824006FF00200BE
:10115000186020688368C3F34243072B05D1A84277
:1011600008D1096811F4702F04D0816841F480110E
:101170008160B9E7816841F4A001F9E700280140E6
:101180000424014070B5044600F008F90546601CCF
:1011900002D004480078044400F000F9401BA0424B
:1011A000FAD370BD080000202DE9F84FDFF8B891A0
:1011B0000024A9F1040B23460F2709F1040AABF11F
:1011C000040EC9E00125A5402A40AA427DD1674E00
:1011D000D1F804C0ACEB0608B44532D014DCBCF145
:1011E000030F3AD009DCBCF1000F2AD0BCF1010F8B
:1011F0001CD0BCF1020F31D11DE0BCF1110F17D092
:10120000BCF1120F2AD119E0B8F5881F19D006DCFD
:10121000B8F5803F15D0B8F5801F1FD111E0B8F5A3
:10122000001F0ED0B8F5041F18D10AE0CB6815E0F6
:10123000CB681B1D12E0CB6808330FE0CB680C3382
:101240000CE08B682BB1012B4FF0080303D04561F4
:1012500004E0042302E0056100E00023FF2A01D836
:10126000064601E000F104064FEA840501D9A5F124
:101270002005D6F8008007FA05FC28EA0C0803FAD6
:1012800005F548EA0508C6F800804D68ED0062D50E
:10129000374DAE6946F00106AE61AD6924F0030634
:1012A00005F001050095334D06EB050CDCF8085000
:1012B000A607360F07FA06F825EA0805DFF8B88012
:1012C000404503D14FF0000817E044E0DFF8AC8060
:1012D000404502D14FF001080FE0DFF8A4804045FF
:1012E00002D14FF0020808E0DFF89880404502D1B3
:1012F0004FF0030801E04FF0040808FA06F848EA46
:101300000508CCF808804D68D9F80060ED024D461C
:1013100001D5164300E096432E604D68DAF8006070
:10132000AD02554601D5164300E096432E604D6848
:10133000DBF80060AD035D4601D5164300E096433F
:101340002E604D68DEF80060ED03754601D516434A
:1013500000E096432E60641C0D682A46E5407FF449
:1013600031AFBDE8F88F0000080401400000111003
:10137000001002400000014000080140000C014044
:1013800000100140001401408068084000D0012096
:1013900070470AB1016170470904FBE701488068A2
:1013A000704700000800002070B5040025D094F8B4
:1013B0003D00002520B984F83C50204600F050F94B
:1013C000242084F83D002068016821F001010160BB
:1013D0002068016841F4004101602068016821F43F
:1013E0000041016000F05CFB4D4A6168914201D808
:1013F0004C4900E04C49884201D2012070BD4B4964
:101400002368B0FBF1F15E6826F03F060E435E6094
:101410006368934206D94FF4967359434FF47A7335
:10142000B1FBF3F12368491C1E6A26F03F063143E5
:1014300019626168914210D84900401EB0FBF1F278
:10144000521CC2F30B02042A01D2042022E0B0FB9A
:10145000F1F0401CC0F30B001CE0A268F2B301EBFA
:10146000C10303EB0116431EB3FBF6F35B1C43F40D
:1014700080431B0549D092B301EBC10202EB01117D
:10148000401EB0FBF1F0401CC0F30B0040F4804064
:1014900040F400402168CA694CF6FF739A43104338
:1014A000C861D4E9071001432068026822F0C00235
:1014B00011430160D4E9030101432068826848F2C6
:1014C000FF339A4311438160D4E905010843216841
:1014D000CA6822F0FF021043C86001E00EE016E087
:1014E0002068016841F0010101602564202084F832
:1014F0003D00256384F83E50002070BD01EB41069D
:10150000431EB3FBF6F35B1CB3E70120C2E701EB1C
:101510004101401EB0FBF1F0401CC0F30B00B7E7E7
:10152000A086010080841E0000093D0040420F009B
:101530002DE9FF4F83B09A46DDE9119793460446A3
:10154000DDF84080FFF72AFF054694F83D0020288B
:101550007FD11923012240492046009500F06EFFFB
:10156000002876D194F83C00012872D0012084F83C
:101570003C0020680168C90703D1016841F00101FE
:1015800001602068016821F400610160212084F875
:101590003D00402084F83E0000262664C4F82480E4
:1015A000A4F82A90608D20852C48E062CDE9007572
:1015B00053465A462046049900F0C0FE70B930E008
:1015C0002A463946204600F0DFFF58B1206C042837
:1015D00004D12068016841F400710160012007B066
:1015E000BDE8F08F606A216800780861606A401C7D
:1015F0006062218D491E89B22185628D521E6285ED
:1016000022685369DB435B070BD469B10078106132
:10161000606A401C6062208D401E2085608D401EE7
:101620006085208D0028CBD12A463946204600F01F
:10163000D9FE0028CAD154F83D0B016841F400716D
:101640000160202004F81E09E67766770020C6E7CF
:10165000FFE70220C3E70000020010000000FFFFC8
:1016600010B586B0002100910191029103910068AC
:101670001349884222D1134CA06940F00800A061B0
:10168000A069694600F0080004904FF44070009093
:1016900012200190032003900B48FFF785FD0B48B3
:1016A000416841F0E06141F002014160E06940F4CD
:1016B0000010E061E06900F40010049006B010BD75
:1016C0000054004000100240000C014000000140A6
:1016D0000248816802781144816070470800002048
:1016E000074810B5016841F010010160032000F0C7
:1016F00067F80F2000F006F800F024F8002010BD75
:101700000020024070B50D4D04464FF47A712878E0
:10171000B1FBF0F00A490968B1FBF0F000F020FDE0
:1017200048B9102C07D200222146501E00F028F89C
:1017300000206C6070BD012070BD0000080000201A
:10174000140000200C4808B5816941F00101816155
:10175000816901F001010091C16941F08051C161CD
:10176000C06900F0805000900448416821F0E061B9
:1017700041F00071416008BD0010024000000140CE
:10178000F0B40E4B1B680C46C3F30223C3F10705EC
:10179000042D00D90425191D072901D2002300E0DA
:1017A000DB1E012606FA05F1491E214099409E40A4
:1017B000761E16403143F0BC01F0A0BB0CED00E0FA
:1017C000064900F0070208684FF6FF03184040EA98
:1017D0000220034A10430860704700000CED00E04F
:1017E0000000FA0510B501460020234C012922D043
:1017F000022939D010291DD161682268D20119D57A
:101800001E48C1F38342C903805C0AD561681B4A44
:10181000C1F34041921E515C194AB2FBF1F14843B9
:1018200001E0184948436168490203D4400003219C
:10183000B0FBF1F010BD226AC2F30121012903D1EE
:10184000920701D5C80310BD022905D1626A92072B
:1018500002D549F6404010BD0329FCD12168890317
:10186000F9D54FF2244010BD00F02AF96168C1F3A8
:101870008131491C4900DBE700100240703100084B
:1018800000127A0000093D002DE9F8430546007872
:10189000354CC00754D0E0690026C00008D4E06988
:1018A00040F08050E061E069012600F08050009037
:1018B0002E480168C90512D40168804641F4807140
:1018C0000160FFF76BFD074605E000BFFFF766FD0F
:1018D000C01B642823D8D8F80000C005F6D5206ABC
:1018E00010F4407021D0A98801F4407181421CD0CD
:1018F000206A1F49012220F440700A6000220A6019
:101900002062C00711D0FFF749FD074641F2883831
:1019100008E000BFFFF742FDC11B414502D903208B
:10192000BDE8F883206A8007F4D5206A696820F44E
:101930004070084320621EB1E06920F08050E061F1
:101940002878800705D56068A96820F440400843DE
:1019500060602878C00605D56068E96820F48000DA
:10196000084360600020DBE7001002400070004088
:10197000400442422DE9F0470F46050061D0434E36
:10198000306800F00700B84209D2306820F0070044
:1019900038433060306800F00700B84251D1286801
:1019A0003B4C810712D5400703D5606840F4E060E6
:1019B00060602878000703D5606840F4605060607C
:1019C0006068A96820F0F000084360602878C007CC
:1019D00028D06868012810D02168022810D0890713
:1019E00000292EDA616821F0030101436160FFF7ED
:1019F000D5FC804641F288390DE021688903EFE784
:101A00008901EDE7FFF7CAFCA0EB0801494502D9BF
:101A10000320BDE8F0876068696800F00C00B0EB57
:101A2000810FEFD1306800F00700B8420BD9306861
:101A300020F0070038433060306800F00700B842FB
:101A400001D00120E5E72878400705D56068E968FE
:101A500020F4E060084360602878000706D56068DD
:101A6000296920F4605040EAC100606000F038F855
:101A70006168084AC1F30311515CC8400649086017
:101A800006480068FFF73EFE0020C2E70020024043
:101A90000010024080310008140000200C000020DB
:101AA0000448054900684968044AC1F30221515CB1
:101AB000C840704714000020001002409031000818
:101AC0000448054900684968044AC1F3C221515CD1
:101AD000C8407047140000200010024090310008F8
:101AE0000E4A51680E4801F00C03042B11D0082B4C
:101AF0000FD10C48C1F38343C903C05C0AD55168B8
:101B0000084AC1F34041921E515C054A5043B0FB64
:101B1000F1F070470449484370470000001002404C
:101B200000127A005E31000800093D002DE9F84FEF
:101B3000040070D02078C04DC00749D06868C0F359
:101B40008100012807D06868C0F38100022809D10C
:101B50006868C00306D52868800339D56068002806
:101B6000E7D035E06068B0F5803F0BD010B1B0F53C
:101B7000A02F11D0286820F480302860286820F435
:101B8000802002E0286840F480302860606890B1CE
:101B9000FFF704FC06460AE0286840F4802028602D
:101BA000F0E700BFFFF7FAFB801B642873D82868B2
:101BB0008003F7D50CE0FFF7F1FB064605E000BF18
:101BC000FFF7ECFB801B6428F0D828688003F7D46B
:101BD00020789A4E80074FF001094FF0000839D560
:101BE000686810F00C0F07D06868C0F38100022805
:101BF00009D16868C00306D42868800714D5206915
:101C0000012808D110E02069B0B1C6F80090FFF7B4
:101C1000C5FB074605E00AE1FFF7C0FBC01B022831
:101C2000C4D828688007F7D52868616920F0F800D3
:101C300040EAC10028600DE0C6F80080FFF7AEFB67
:101C4000074604E0FFF7AAFBC01B022823D8286838
:101C50008007F7D4207800072CD57948A169D9B13D
:101C6000C0F80090FFF79AFB074604E0FFF796FBE9
:101C7000C01B02280FD8686A8007F7D571484FF457
:101C8000FA510068B0FBF1F0009000BF0098411ECF
:101C90000091FAD20EE080E0C0F80080FFF77EFBF2
:101CA000074604E0FFF77AFBC01B022875D8686A74
:101CB0008007F7D42078400760D5E8690027C00086
:101CC00008D4E86940F08050E861E869012700F035
:101CD000805000905C480168C90513D401688346B0
:101CE00041F480710160FFF759FB824606E000BFB6
:101CF000FFF754FBA0EB0A0064284ED8DBF8000085
:101D0000C005F5D5E06801280AD008B1052813D030
:101D1000286A20F001002862286A20F0040002E00E
:101D2000286A40F001002862E06841F2883B98B1DF
:101D3000FFF734FB82460BE0286A40F0040028627B
:101D4000EEE700BFFFF72AFBA0EB0A0159455AD87E
:101D5000286A8007F6D50CE0FFF720FB824605E0F5
:101D6000FFF71CFBA0EB0A0159454CD8286A8007F5
:101D7000F6D41FB1E86920F08050E861E06988B3CB
:101D80006968C1F38101022944D00228C6F8608045
:101D900004D0FFF703FB044638E034E0FFF7FEFA17
:101DA000074604E0FFF7FAFAC01B02282BD8286880
:101DB0008001F7D4206AB0F5803F05D16868A1683A
:101DC00020F4003008436860D4E9080108436968DA
:101DD00021F4741108436860C6F86090FFF7DEFADA
:101DE000044606E025E000BFFFF7D8FA001B0228F2
:101DF00009D828688001F7D51BE000BFFFF7CEFAAD
:101E0000001B022802D90320BDE8F88F2868800152
:101E1000F4D40EE00128F7D06868226A00F480311B
:101E2000914204D1616A00F47010884201D001200F
:101E3000EAE70020E8E7000000100240000042420C
:101E400080044242140000200070004070B504007D
:101E500009D0606A002540B125616561A56294F8EA
:101E6000510040B10CE0012070BD6068B0F5827F88
:101E7000F4D0E561F2E784F85050204600F040F8D5
:101E8000022084F851002068016821F040010160BF
:101E9000A088218900F4827001F404410843A189DB
:101EA00001F400610843217C01F002010843217D17
:101EB00001F001010843218B01F400710843217FE7
:101EC00001F03801084394F8201001F08001084324
:101ED000218D01F40051084321680860A0690421A4
:101EE00001EA1040216848602068C16921F400615E
:101EF000C1616565012084F85100002070BD0000BB
:101F000030B585B0002400940194029403940068D5
:101F10001449884223D11448816941F48051816178
:101F2000816901F480510491816941F0040181616A
:101F300080690E4D00F004000490A0200090022063
:101F400001900320039069462846FFF72DF94020B1
:101F5000CDE90004694628460294FFF725F905B04B
:101F600030BD000000300140001002400008014078
:101F70002DE9FF4F81B01D46934604464FF00109FD
:101F80000E9EFFF70BFA074694F85100616801288E
:101F900006D0B1F5827F3CD1A168C9BB042838D1F5
:101FA0000298002871D0BBF1000FFBD0002DF9D0B2
:101FB00094F8500001282CD04FF0010A84F850A06A
:101FC00094F85100042802D0052084F851004FF005
:101FD0000008C4F85480C4F838B0E587A587029992
:101FE0002163E586A586C4F84080C4F84480206853
:101FF0000168490603D4016841F040010160E068CE
:10200000B0F5006F606808D0F0B3012D49D081E0D1
:10201000FFE7022005B0BDE8F08F08B1012D39D1EE
:10202000206B21680088C860206B801C2063E08ED4
:10203000401EE0862EE02068816889070FD5E18E7A
:1020400069B1B9F1010F0AD1216B0988C160206B18
:10205000801C2063E08E401EE0864FF0000920685F
:102060008168C9070CD0E18F51B1C068A16B0880AD
:10207000A06B801CA063E08F401EE0874FF0010939
:10208000FFF78CF9C01B01E00BE067E0B04201D321
:10209000701C50D1E08E0028CDD1E08F0028CAD12D
:1020A0003EE0206B216800780873206B401C2063A1
:1020B000E08E401EE0862DE02068816889070FD5FC
:1020C000E18E69B1B9F1010F0AD1216B0978017371
:1020D000206B401C2063E08E401EE0864FF000091C
:1020E00020688168C9070CD0E18F51B1C068A16B2D
:1020F0000870A06B401CA063E08F401EE0874FF08B
:102100000109FFF74BF9C01BB04202D3701C01D08C
:1021100011E086B1E08E0028CED1E08F0028CBD12F
:102120003A463146204600F064FD50B120206065FB
:1021300084F8508012E084F851A084F85080032085
:1021400068E7A06818B92068C1688068009084F8C2
:1021500051A084F85080606D0028F1D0012059E72B
:1021600010B5401EB0F1807F01D3012010BD4FF0AB
:10217000E02460610F21601700F0C0FE0020A06124
:1021800007202061002010BD70B5040004D094F831
:102190004100002510B106E0012070BD84F84050D8
:1021A000204600F023F8242084F841002068C1680C
:1021B00021F40051C160204600F00AFE2068016948
:1021C00021F4904101612068416921F02A014161B7
:1021D0002068C16841F40051C1606564202084F822
:1021E000410084F842006563002070BD30B585B0C1
:1021F00000240094019402940394006817498842D3
:102200002AD11748816941F480418161816901F4D3
:1022100080410491816941F0080181618069114D1B
:1022200000F008000490402000900220019003205C
:10223000039069462846FEF7B7FF8020CDE90004E9
:10224000694628460294FEF7AFFF0748416841F00F
:10225000E06141F00401416005B030BD003801404B
:1022600000100240000C0140000001402DE9F8433D
:10227000044690F84100984616460D46202802D0A4
:102280000220BDE8F88385B17EB100206064212082
:1022900084F84100FFF782F8A6848146E684A068AE
:1022A0002027B0F5805F02D003E00120E9E7206934
:1022B00010B12E4600250EE000260CE080212046BD
:1022C00000F0E2FDA8B9C6B116F8010B216848601C
:1022D000E08C401EE084E08C4B464FF00002CDF8CD
:1022E00000800028EAD14FF04001204600F0CCFDEC
:1022F00040B184F841700320C3E735F8020BC0F306
:102300000800E3E784F841700020BAE7FEE70168BF
:102310004A69D24352050FD46FF480624A610021AA
:1023200040F8301F202242738173026942F0040298
:102330000261017301207047002070472DE9F843C6
:10234000044600680D46DDE9089701689846164680
:1023500041F4807101604B4600224FF0011120468C
:10236000009700F06BF848B120680068C00502D5FE
:102370004FF4007020640320BDE8F883216805F065
:10238000FE0008613B464A461549204600F09EF88B
:1023900088B920684169806900903A4649462046DC
:1023A00000F0F2F848B1206C042804D120680168DC
:1023B00041F4007101600120DEE7F5B2B8F1010FD0
:1023C00009D02168300A08613A464946204600F0A3
:1023D000DBF80028E7D1206805610020CCE7000089
:1023E0000200010070B516460D4604461EE0204668
:1023F000FFF78DFF08B1012070BD681C16D0FEF7F5
:10240000CDFF801BA84200D885B920684069C04331
:1024100040070BD5002044F8300F20216173A073D2
:10242000216941F0200121612073E4E720684069BF
:10243000C0434007DBD4002070BD00002DE9F04709
:10244000984617460D460446C1F30746DDF820902E
:102450002AE000BFB8F1FF3F26D0FEF79FFFA0EBB8
:102460000901414502D8B8F1000F1DD12068012EA5
:1024700016D0806925EA00000004000C12D000206C
:10248000B84211D1002044F8300F20216173A073AD
:10249000216941F02001216120730120BDE8F0870E
:1024A0004069E7E70120EBE72068012E0AD0806948
:1024B00025EA00000004000C06D00020B842C9D074
:1024C0000020EBE74069F3E70120F7E72DE9F0474B
:1024D000984616460D4604464FF000094FF0200A74
:1024E000C1F3074723E020684069C043400515D485
:1024F0002068016841F40071016021686FF4806018
:102500004861C4F8309084F83DA084F83E90216C76
:1025100041F00401216484F83C9021E0701C06D055
:10252000FEF73CFFA0EB0800B04203D816B1012F24
:102530001FD021E02068012F15D0806925EA000016
:102540000004000C18D000BF44F8309F84F80DA0A0
:1025500084F80E90216941F02001216184F80C90EB
:102560000120BDE8F087406925EA00000004000C66
:10257000EAD12068406901E02068806925EA00000E
:102580000004000CAFD1ECE770B516460D460446CA
:102590001EE02046FFF7BBFE08B1012070BD681C9D
:1025A00016D0FEF7FBFE801BA84200D885B9206834
:1025B0004069C04300060BD5002044F8300F2021AD
:1025C0006173A073216941F0200121612073E4E768
:1025D00020684069C0430006DBD4002070BD0000C5
:1025E0003EB5002410480094019402940D49846083
:1025F000016004730475012505614FF46021446096
:10260000C161FEF7EFFB08B1FEF768FBCDE90045BD
:10261000694605480294FEF763FB002801D0FEF7E7
:102620005DFB3EBD002401403C0000203EB500247F
:1026300011480094019402940E498460016004736F
:102640000475012505614FF460214460C161FEF706
:10265000C9FB08B1FEF742FB0320CDE9000569463E
:1026600002940548FEF73CFB002801D0FEF736FB3C
:102670003EBD0000002801406C000020F0B585B090
:10268000002427480094019402940394816941F046
:1026900010018161816901F010010491816941F0AB
:1026A00020018161816901F020010491816941F07B
:1026B00004018161816901F004010491816941F0A3
:1026C000080181618069174E00F008000490012222
:1026D00010213046FEF75DFE134F002201213846DF
:1026E000FEF757FE10200125CDE900050320CDE9B6
:1026F000024069463046FEF757FD022603960095D4
:10270000CDE9015469463846FEF74EFD009669460C
:102710003846CDE90145FEF747FD05B0F0BD0000A4
:102720000010024000080140000C01400D4810B5A7
:102730000B4901600C49416000214FF480428160E7
:10274000C0E9031241618161C1610162FEF72CFEA3
:10275000002803D0BDE81040FEF7C0BA10BD00004D
:10276000005400409C000020A0860100104810B5D5
:102770000E4901604FF48271416000218160C160A7
:102780004FF400720161C0E905121822C0E9072167
:10279000416281620A21C162FFF758FB002803D021
:1027A000BDE81040FEF79ABA10BD000000300140AD
:1027B000F00000200C4810B50A4901604FF4E131E7
:1027C0004160002181600C22C160C0E90412816176
:1027D000C161FFF7D9FC002803D0BDE81040FEF727
:1027E0007DBA10BD0038014048010020FEE7FEE739
:1027F0001CB50FA10522D1E90001CDE90001694610
:10280000302000F0C5F805226946102000F014F8C9
:10281000002069460A5CA52A03D1401CC0B20528E5
:10282000F8D3052801D001201CBD00201CBD0000EC
:10283000A5A5A5A5A50000002DE9F041DFF8408081
:1028400015460F460446002210214046FEF7A1FD22
:1028500021460C4800F044FA0646002406E0FF2119
:10286000084800F03DFA3855641CE4B2AC42F6D397
:10287000012210214046FEF78CFD3046BDE8F08174
:1028800000080140F000002070B50B4D0446002206
:1028900010212846FEF77DFD2146084800F020FA69
:1028A000FF21064800F01CFA0446012210212846A8
:1028B000FEF76FFD204670BD00080140F0000020CB
:1028C00010B5194C002201212046FEF762FD0522B9
:1028D0001649302000F05CF814490522491D2A20D1
:1028E00000F056F80121212000F07CF8012122207F
:1028F00000F078F8FF21242000F074F8282125202A
:1029000000F070F80F21262000F06CF80E21202036
:1029100000F068F8012211462046FEF73AFDBDE8B6
:1029200010400120FEF72EBC000C01409831000839
:1029300070B5164C0546002201212046FEF729FD00
:1029400020222946A02000F023F80122114620462B
:10295000FEF71FFD02212046FEF716FD0028F9D1E3
:102960000720FFF791FF04460146272000F03AF8C0
:10297000E00605D5FF21E12000F034F8102070BDFD
:10298000A00601D5202070BDFF2070BD000C0140C5
:102990002DE9F041DFF8448016460D46044600223A
:1029A00010214046FEF7F5FC21460D4800F098F94D
:1029B0000746002407E000BF15F8011B084800F097
:1029C0008FF9641CE4B2B442F6D3012210214046D0
:1029D000FEF7DFFC3846BDE8F0810000000801404A
:1029E000F000002070B50C4D0E4604460022102168
:1029F0002846FEF7CEFC2146084800F071F904464F
:102A00003146064800F06CF9012210212846FEF7F5
:102A1000C0FC204670BD000000080140F00000200E
:102A200070B5002404F1B000C0B200F0BDF8002081
:102A300000F0BAF8102000F0B7F80025002000F0F0
:102A4000C5F86D1CEDB2802DF8D3641CE4B2082CDF
:102A5000E8D370BD70B5C820FEF794FB044D002488
:102A6000285D00F0A1F8641CE4B2172CF8D370BD07
:102A70001800002010B50446B031C8B200F094F838
:102A8000102040EA141000F08FF804F00F00BDE8A9
:102A9000104000F089B800002DE9F047203A0024EA
:102AA000089E0F468146D5B27F2803D900208F1C8F
:102AB0008146FFB2102B394612D0FFF7DBFF1B49CE
:102AC00005EB450001EB4005285D0EB1C043C0B2E7
:102AD00000F07CF8641CE4B2062CF5D3BDE8F08766
:102AE000FFF7C8FFDFF8488004EB051118F8010074
:102AF0000EB1C043C0B200F069F8641CE4B2082C07
:102B0000F2D37F1CF9B24846FFF7B4FF00244746D2
:102B100004EB05103844007A0EB1C043C0B200F097
:102B200055F8641CE4B2082CF2D3D7E7A2310008B0
:102B3000CA3300082DE9FF4F81B00026DDE90EA958
:102B40001D469346804634464FEA5A0727E0281B25
:102B5000401EC1B20A2000F0F9FABBFBF0F00A21D6
:102B6000B0FBF1F201FB120026B9691E8C4201DABA
:102B700048B101263030C2B207FB0480C0B25346D0
:102B8000CDF8009006E007FB0480C0B25346202237
:102B9000CDF800900299FFF77FFF641CE4B2AC42CD
:102BA000D5D305B0BDE8F08F01B584B001214FF455
:102BB000807204A88DE807000B46002278210248A5
:102BC000FEF7B6FC05B000BD9C00002001B584B046
:102BD00001214FF4807204A88DE807000B464022C3
:102BE00078210248FEF7A4FC05B000BD9C0000203F
:102BF0007047F8B515460E460B4600920446012272
:102C0000022100F011F840B933460022802120460D
:102C1000009500F009F8002804D0606D40F0200015
:102C200060650320F8BD00002DE9F8431E4691467B
:102C300088460446089DFEF7B1FB401B351AFEF797
:102C4000ADFB074625480068C0F3CB30684338E049
:102C5000701C37D0FEF7A2FBC01BA84203D215B1EF
:102C6000009860B32CE02068416821F0E0014160E9
:102C70006068B0F5827F0BD1A068B0F5004F02D03C
:102C8000B0F5806F04D12068016821F04001016037
:102C9000A06AB0F5005F09D12068016821F40051F5
:102CA00001602068016841F400510160012084F84E
:102CB0005100002084F850000320BDE8F88300256F
:102CC000401E00902068816838EA010004D000218D
:102CD0004945BDD10020F0E70121F9E714000020AB
:102CE0003EB5FF248DF80810012301AA02A9009423
:102CF000FFF73EF908B18DF804409DF804003EBD91
:102D00007047FEF7E5BC30B593B028216846FDF763
:102D1000D0FA14210AA8FDF7CCFA002501200F955E
:102D200010951195010412958DE8230004904FF43D
:102D3000E010CDE90810022407946846FEF7F6FE7D
:102D400008B172B6FEE70AA90F2081E831004FF4FE
:102D50008060CDE90D0502210AA8FEF70BFE08B13F
:102D600072B6FEE74FF4004011900F940FA8FEF7E3
:102D70008BFD002801D072B6FEE713B030BD70475E
:102D800001680C3151E8002F22F4907241E80023D1
:102D9000002BF5D10168143151E8002F22F0010217
:102DA00041E80023002BF5D1016B012909D101680D
:102DB0000C3151E8002F22F0100241E80023002BD3
:102DC000F5D1202180F842100021016370470000F6
:102DD00070B5044600680169E26821F4405111436E
:102DE00001612169A0680843616908432168CA68D4
:102DF00041F20C639A430243CA6020684169A269A8
:102E000021F44071114341611E492068884202D17A
:102E1000FEF756FE01E0FEF743FE00EBC00101EBBA
:102E20000012606864218000B2FBF0F3B3FBF1F3A1
:102E30006FF018067343B2FBF0F5B2FBF0F605EB4A
:102E40008305322303EB0515B5FBF1F5B6FBF1F66F
:102E500005F0F00505EB0615B2FBF0F6B2FBF0F05D
:102E6000B0FBF1F06FF01802504306EB800003EB6B
:102E70000010B0FBF1F0216800F00F0028448860DA
:102E800070BD0000003801402DE9F8439846174610
:102E90000D460446089E24E0701C22D0FEF77EFA00
:102EA000A0EB0800B0421AD8CEB12068C16849072B
:102EB00017D5802D15D0402D13D00168C9430907BF
:102EC0000FD401680025406800902046FFF758FFA6
:102ED0000820606484F840500120BDE8F883032096
:102EE000FBE72068006835EA000004D00020B84203
:102EF000D2D00020F1E70120F9E7FEE70907090E2B
:102F0000002804DB00F1E02080F80014704700F096
:102F10000F0000F1E02080F8141D704713B54FF644
:102F2000FF73012269460248FFF7A0F900981CBD13
:102F30004801002010B50648FEF7C4F84FF0FF31F5
:102F40000348FEF721F8BDE810400148FDF746BFF1
:102F50006C00002010B50648FEF7B4F84FF0FF31C2
:102F60000348FEF711F8BDE810400148FDF736BFF1
:102F70003C0000201FB5002502950395FEF7B0FB2D
:102F8000FFF7C1FEFFF77AFBFFF72AFBFFF74EFBC7
:102F9000FFF7CCFBFFF7EAFBFFF70CFCFFF75AFD4E
:102FA000FFF73EFD4FF47A7705E043A0FDF718F9EF
:102FB0003846FEF7E7F8FFF71BFC0028F5D149A0DB
:102FC000FDF70EF9FFF77CFC4E4C4FF064084FF014
:102FD0000A09102602A8FFF7ABFC202862D04AA0FD
:102FE000FDF7FEF8FFF7B6FF2060FFF7A3FFC0F57F
:102FF00080506060642800DA6560206890FBF7F21A
:1030000090FBF8F38DF80820524290FBF9FC02EB9C
:10301000820203EB42038DF809305B4203EB83032A
:103020000CEB43038DF80A305B4203EB830300EBA8
:1030300043008DF80B00606890FBF7F390FBF8F10C
:103040008DF80C305B4290FBF9F203EB830301EB4C
:1030500043018DF80D10494201EB810102EB410162
:103060008DF80E10494201EB810100EB41008DF813
:103070000F0002A8FFF75CFC202818D022A0FDF763
:10308000AFF8CDE900650423002130202268FFF766
:1030900051FDCDE900650423022130206268FFF76D
:1030A00049FD97E702A920A0FDF79AF89AE702A93F
:1030B0001DA0FDF795F8E4E7BCECB2E2B2BBB5BDEC
:1030C0004E524632344C3031CEDECFDFC4A3BFE99E
:1030D000A3ACC7EBBCECB2E9D3B2BCFEC1ACBDD370
:1030E0000D0A00004E524632344C3031CEDECFDF76
:1030F000C4A3BFE9D3B2BCFEC1ACBDD3D5FDB3A35D
:103100000D0A0000000000204E524632344C30318F
:10311000CEDECFDFC4A3BFE9CAFDBEDDB7A2CBCDF3
:10312000CAA7B0DC0D0A00004E524632344C303192
:10313000CEDECFDFC4A3BFE9CAFDBEDDB7A2CBCDD3
:10314000B3C9B9A6A3BA25730D0A0000024601202F
:1031500000E05043491EC9B2FBD27047010202038E
:103160000405060708090A0B0C0D0E0F10100102CA
:1031700002030405060708090A0B0C0D0E0F1010B8
:103180000000000000000000010203040607080917
:103190000000000001020304344310100134431006
:1031A00010010000000000000000002F00000000DF
:1031B0000700070000147F147F1400242A7F2A12BE
:1031C00000626408132300364955225000000503AD
:1031D000000000001C224100000041221C000014DD
:1031E000083E08140008083E0808000000A060001F
:1031F00000080808080800006060000000201008AF
:103200000402003E5149453E0000427F400000421A
:1032100061514946002141454B31001814127F107D
:10322000002745454539003C4A49493000017109AC
:10323000050300364949493600064949291E000060
:103240003636000000005636000000081422410007
:103250000014141414140000412214080002015137
:10326000090600324959513E007C1211127C007F40
:1032700049494936003E41414122007F4141221CDB
:10328000007F49494941007F09090901003E414940
:10329000497A007F0808087F0000417F4100002034
:1032A00040413F01007F08142241007F40404040E0
:1032B000007F020C027F007F0408107F003E414126
:1032C000413E007F09090906003E4151215E007F11
:1032D000091929460046494949310001017F010188
:1032E000003F4040403F001F2040201F003F40382B
:1032F000403F00631408146300070870080700616A
:103300005149454300007F41410000552A552A5547
:10331000000041417F0000040201020400404040DF
:103320004040000001020400002054545478007F03
:103330004844443800384444442000384444487FDA
:1033400000385454541800087E0901020018A4A43F
:10335000A47C007F080404780000447D4000004005
:1033600080847D00007F102844000000417F4000E1
:10337000007C04180478007C080404780038444475
:10338000443800FC242424180018242418FC007C51
:103390000804040800485454542000043F444020CA
:1033A000003C4040207C001C2040201C003C403061
:1033B000403C004428102844001CA0A0A07C0044ED
:1033C00064544C441414141414140000000000003D
:1033D00000000000000000000000000000F80000F5
:1033E0000000000000333000000000100C06100C3C
:1033F0000600000000000000000040C07840C078D7
:103400004000043F04043F040400007088FC0830BE
:103410000000001820FF211E0000F008F000E01856
:10342000000000211C031E211E0000F0088870000F
:1034300000001E2123241927211010160E00000061
:1034400000000000000000000000000000E0180480
:103450000200000000071820400000020418E000ED
:1034600000000040201807000000404080F080402D
:1034700040000202010F01020200000000F0000003
:1034800000000101011F0101010000000000000017
:10349000000080B07000000000000000000000008C
:1034A0000000000101010101010100000000000015
:1034B00000000030300000000000000000008060CC
:1034C0001804006018060100000000E01008081051
:1034D000E000000F102020100F00001010F8000076
:1034E00000000020203F202000000070080808880D
:1034F00070000030282422213000003008888848DD
:1035000030000018202020110E000000C02010F80C
:10351000000000070424243F240000F808888808DD
:1035200008000019212020110E0000E010888818E2
:103530000000000F112020110E0000380808C838C4
:1035400008000000003F00000000007088080888A4
:103550007000001C222121221C0000E0100808102D
:10356000E0000000312222110F00000000C0C00066
:10357000000000000030300000000000008000006B
:10358000000000008060000000000000804020106B
:103590000800000102040810200040404040404064
:1035A00040000404040404040400000810204080C7
:1035B00000000020100804020100007048080808FC
:1035C000F0000000003036010000C030C828E810CC
:1035D000E0000718272423140B000000C038E00087
:1035E0000000203C23020227382008F888888870D1
:1035F0000000203F202020110E00C03008080808DD
:103600003800071820202010080008F808080810C3
:10361000E000203F202020100F0008F88888E808EC
:103620001000203F20202320180008F88888E80890
:103630001000203F200003000000C03008080838B8
:10364000000007182020221E020008F808000008C9
:10365000F808203F210101213F20000808F8080850
:1036600000000020203F2020000000000808F8088B
:103670000800C08080807F00000008F888C02818FB
:103680000800203F20012638200008F8080000002C
:103690000000203F20202020300008F8F800F8F833
:1036A0000800203F003F003F200008F830C000081D
:1036B000F808203F200007183F00E0100808081015
:1036C000E0000F10202020100F0008F8080808085C
:1036D000F000203F210101010000E010080808105F
:1036E000E0000F18242438504F0008F88888888894
:1036F0007000203F2000030C30200070880808086C
:1037000038000038202121221C00180808F8080879
:1037100018000000203F2000000008F80800000802
:10372000F808001F202020201F000878880000C80B
:103730003808000007380E010000F80800F80008FB
:10374000F800033C0700073C030008186880806805
:10375000180820302C03032C30200838C800C83843
:1037600008000000203F2000000010080808C838AA
:1037700008002038262120201800000000FE020248
:1037800002000000007F40404000000C30C00000FC
:103790000000000000010638C00000020202FE0026
:1037A0000000004040407F000000000004020202D0
:1037B0000400000000000000000000000000000005
:1037C00000008080808080808080000202040000F1
:1037D00000000000000000000000000080808080E9
:1037E00000000019242222223F2008F800808000D7
:1037F0000000003F112020110E000000008080809A
:103800000000000E112020201100000000808088A0
:10381000F800000E112020103F20000080808080E2
:103820000000001F222222221300008080F08888DE
:1038300088180020203F2020000000008080808029
:103840008000006B94949493600008F8008080805E
:103850000000203F210000203F20008098980000B9
:1038600000000020203F20200000000000809898E9
:10387000000000C08080807F000008F80000808089
:103880008000203F24022D302000000808F80000AE
:1038900000000020203F2020000080808080808069
:1038A0008000203F20003F20003F808000808080FB
:1038B0000000203F210000203F2000008080808009
:1038C0000000001F202020201F008080008080003A
:1038D000000080FFA12020110E00000000808080E9
:1038E0008000000E112020A0FF808080800080805A
:1038F000800020203F212000010000008080808087
:1039000080000033242424241900008080E080807B
:1039100000000000001F20200000808000000080C8
:103920008000001F202020103F2080808000008029
:10393000808000010E300806010080800080008039
:1039400080800F300C030C300F00008080008080DE
:1039500080000020312E0E31200080808000008009
:10396000808080818E7018060100008080808080B9
:1039700080000021302C2221300000000000807CDB
:10398000020200000000003F40400002027C800074
:1039900000000040403F0000000000000000FF0069
:1039A000000000000000FF0000003A7474003A7448
:1039B00074003A7474000000D83900080000002038
:1039C0003C00000028010008143A00083C000020D8
:1039D000B4080000440100080000000000000000DE
:1039E00001000000100000000000000000127A003A
:1039F000AED580A83FD30040A1C8DA1281CFD9F15B
:103A0000DB40A4A68D14AF00000000000000000001
:043A100000000000B2
:04000005080000ED02
:00000001FF
